:020000040800F2
:100000000004002047010008A1010008A301000826
:10001000A7010008AB010008AF01000800000000C4
:10002000000000000000000000000000B301000814
:10003000B501000800000000B7010008B901000880
:1000400067010008670100086701000867010008F0
:1000500067010008670100086701000867010008E0
:1000600067010008670100086701000867010008D0
:1000700067010008670100086701000867010008C0
:10008000BF05000867010008670100086701000854
:1000900067010008670100086701000867010008A0
:1000A0006701000867010008670100086701000890
:1000B0006701000867010008670100086701000880
:1000C0006701000867010008670100086701000870
:1000D00067010008CD0800086701000867010008F3
:1000E0006701000867010008670100086701000850
:1000F0006701000867010008670100086701000840
:10010000670100086701000867010008670100082F
:10011000670100086701000867010008670100081F
:10012000670100086701000867010008670100080F
:10013000DFF80CD001F0EAFC004800477501000828
:1001400030030020704708488047084981F3088839
:1001500007480047FEE7FEE7FEE7FEE7FEE7FEE7AB
:10016000FEE7FEE7FEE7FEE745010008300300205A
:100170003101000801F06AFB00F052F94FF42F72D0
:100180003221022000F0DCFB4FF4E1723221012029
:1001900000F0D6FB00F0E8F900F010F800BFFEE731
:1001A000704700BFFEE700BFFEE700BFFEE700BFED
:1001B000FEE77047704770477047000000208A498B
:1001C00008608A480068486000208860C86048610C
:1001D000874888618748C8614FF0824008620020E4
:1001E00048628548886285480068854948600020E3
:1001F00008608860C86048617D4888617D48C86142
:100200004FF082400862002048627E4888620020E9
:100210007D49486008608860C860486174488861AA
:100220007448C8614FF082400862002048627748F5
:10023000886200207649486008608860C86048612C
:100240006B4888616B48C861724808620020486248
:1002500071488862704770B504460D4629462046AD
:1002600001F012FC04D22946204601F06BFB70BD60
:100270002946204601F0FEFB04D22946204601F023
:1002800064FBF4E72046F2E72DE9F04704460D460B
:100290002846616801F056FBA060A168606901F022
:1002A000FFFA6061D4E9020101F04CFBE062D4E99D
:1002B000050101F0E9FB01D2A0696061E1696069B3
:1002C00001F0D8FB01D2E06960610021E06A01F031
:1002D000D1FB1CD0D4E9020101F034FB8046A16AB5
:1002E00001F036FB06466169606A01F031FB804629
:1002F000A168206A01F02CFB8146414601F0D0FA4A
:100300000746314601F0CCFA2060A068E060002189
:10031000E06A01F0AFFB26D10021A068FFF79BFF48
:1003200006464FF0804101F0A5FB1CD2D4E9020142
:1003300001F008FB8046A16A01F00AFB06466169EC
:10034000606A01F005FB8046A168206A01F000FBAD
:100350008146414601F0A4FA0746314601F0A0FA71
:100360002060A068E0602068BDE8F0872DE9F047D4
:1003700080460F4614461D4639464046FFF76BFF40
:1003800006462648066021463846FFF764FF814648
:1003900029463846FFF75FFF82464946304601F05E
:1003A00069FB07D25146304601F064FB02D2404659
:1003B000BDE8F0873146484601F05CFB06D2514665
:1003C000484601F057FB01D22046F1E74946504626
:1003D00001F050FB06D23146504601F04BFB01D2F2
:1003E0002846E5E74046E3E75000002010000020E3
:1003F00000007A4400007AC40000A04214000020EB
:10040000B00000200000C842800000200000A04191
:10041000E00000200000E0400000F0411800002053
:1004200000B591B001210C2000F0F4FD012144F24F
:10043000010000F0EFFD01214FF4C02000F0F7FDB6
:100440000121084600F0D9FD4FF40070ADF84000DE
:1004500018208DF8430003208DF8420010A9FE48B3
:1004600000F03CFB4FF48060ADF8400004208DF8B4
:10047000430003208DF8420010A9F74800F02EFB3E
:100480004FF4E1300C900020ADF83400ADF83600A8
:100490000C20ADF83A000020ADF83800ADF83C0073
:1004A0000CA9EE4800F083FF0121EC4800F0EDFFBD
:1004B0000420ADF8400018208DF8430001208DF88D
:1004C000420010A9E44800F009FB0820ADF8400004
:1004D00004208DF8430001208DF8420010A9DE4869
:1004E00000F0FCFA4FF4E1300C900020ADF834003D
:1004F000ADF836000C20ADF83A000020ADF8380019
:10050000ADF83C000CA9D64800F051FF0121D448B9
:1005100000F0BBFF09200490002003900B90D1480D
:100520000290002008908020069020200990CC485E
:10053000001D01900020079005904FF400500A9094
:1005400001A9C94800F063FE01220221C64800F05B
:1005500094FE0121C44800F085FE01224021C048DC
:1005600000F0BFFF11B000BD08B54FF4C06001F04E
:100570008DF810208DF8000001208DF80200002079
:100580008DF8010001208DF80300684601F083F822
:1005900008BD70B504460D460BE000BFAF480088AB
:1005A00000F040000028F9D014F8011BAB4800F01F
:1005B000D4FF2800A5F10101CDB2EED170BD2DE927
:1005C000F047A848007821287ED1A648C0782E2878
:1005D0001FD1A449087901F034FA8246A34901F0F9
:1005E000B1F98046A24901F0E5F907469D498978AD
:1005F00030399C4A5278303A02EB820201EB4200D9
:1006000001F016FA8146394601F04AF999494860E5
:1006100018E09449C87801F014FA8246934901F031
:1006200091F98046924901F0C5F907468D4949780C
:10063000A1F1300001F0FCF98146394601F030F9B2
:100640008C4948608748C0792E281FD18549087A8F
:1006500001F0F7F98246854901F074F98046844932
:1006600001F0A8F907467F49897930397D4A5279E6
:10067000303A02EB820201EB420001F0D9F98146E7
:10068000394601F00DF97B49086018E07549C879D1
:1006900001F0D7F98246754901F054F98046744952
:1006A00001F088F907466F494979A1F1300001F05E
:1006B000BFF98146394601F0F3F86E4908606D4A8A
:1006C00011686D4A506800E0FBE06C4A13686C4AA0
:1006D0001268FFF74BFE6B4908606948016869487A
:1006E000006801F0C7F906D06448016865480068F1
:1006F00001F0C0F92CD163480068634948605D4847
:1007000001686148FFF7C0FD05465A4908685C4921
:100710000968FFF7A0FD07465C4901F0ABF905D277
:10072000544801685448FFF7AFFD05465149086831
:1007300052490968FFF78FFD0746544901F09AF9BD
:100740000CD24C4801684C48FFF79EFD054605E079
:10075000484801684848FFF797FD0546454A5168F3
:100760004B4A50684B4A13684B4A1268FFF7FEFD2C
:10077000064649480168304601F07CF905D03F48FB
:100780000168304601F076F92AD14448466039487C
:1007900041684248FFF778FD0446364948683E49BB
:1007A0000968FFF758FD0746384901F063F905D29B
:1007B000304841683648FFF767FD04462D494868D0
:1007C00034490968FFF747FD0746304901F052F9FF
:1007D0000CD2284841682E48FFF756FD044605E034
:1007E000244841682A48FFF74FFD044684F000473B
:1007F0002B49384601F054F804462A49284601F0AE
:100800004FF805462849284601F03EF900D2264D0A
:100810002649284601F02EF900D2244D24492046CD
:1008200001F032F900D2224C2249204601F022F98F
:1008300000D2204C20480560284601F007F987B215
:100840003A460121022000F07BF8204601F0FEF834
:1008500087B23A46012131E00008014000380140EA
:1008600000440040100100206C00024000004042A3
:100870000000204140000020B00000200C000020BB
:100880000800002028000020E00000200000A04018
:100890005000002004000020000000208000002004
:1008A0000000EB4300002F440000614400001644A8
:1008B00000C03C44000087431C000020084600F0B4
:1008C0003FF8022000F018FDBDE8F08710B52021A8
:1008D000034800F099FE2021014800F09EFE10BD63
:1008E0000038014001460022022004E00B5C134462
:1008F0009AB2431CD8B2CB789B1C8342F6DCD3431C
:100900009AB2D0B270477CB504460D4655208DF89A
:1009100001008DF800008DF8024004208DF80300DE
:100920000D208DF8040000208DF805006846FFF7C3
:10093000D9FF8DF8060007216846FFF72AFE7CBD27
:10094000FEB506460D461446B4F57A7F01DD4FF438
:100950007A7455208DF801008DF800008DF8026042
:1009600007208DF8030001208DF80400E0B28DF817
:10097000050020128DF8060005F00F008DF8070025
:1009800028128DF808006846FFF7ACFF8DF80900C3
:100990000A216846FFF7FDFDFEBD7CB5054642F223
:1009A00010769DF80100552801D1012000E00020BB
:1009B0008DF800008DF8025007208DF8030002200A
:1009C0008DF8040000208DF805006846FFF78AFFC7
:1009D0008DF806000A216846FFF7DBFD00BF3000F6
:1009E000A6F101018EB2FAD1002407E0054800F01B
:1009F000B8FD054921F81400601CC4B2072CF5DBD2
:100A00007CBD0000003801402201002010B50446E2
:100A1000C649601A8C422FD009DCC548204480B1F9
:100A2000B0F5806F16D0B0F5006F4AD11BE0B0F57D
:100A3000806F2AD0B0F5006F30D0B0F5406F40D154
:100A400035E00121042000F0FFFA0021042000F02D
:100A5000FBFA37E00121082000F0F6FA0021082017
:100A600000F0F2FA2EE00121102000F0EDFA002152
:100A7000102000F0E9FA25E00121202000F0E4FA3E
:100A80000021202000F0E0FA1CE00121402000F0CD
:100A9000DBFA0021402000F0D7FA13E0012180208A
:100AA00000F0D2FA0021802000F0CEFA0AE0012105
:100AB000080200F0C9FA00214FF4807000F0C4FA77
:100AC00000E000BF00BF10BD10B50121084600F0D6
:100AD000BBFA0021012000F0B7FA10BD2DE9F0416A
:100AE000024600250026002000230024002791F85C
:100AF00003C00CF00F0591F803C00CF0100CBCF112
:100B0000000F03D091F802C04CEA050591F800C02F
:100B1000BCF1000F31D0146800202BE04FF0010C25
:100B20000CFA00F3B1F800C00CEA03069E4220D193
:100B300083004FF00F0C0CFA03F7BC4305FA03FCDB
:100B40004CEA040491F803C0BCF1280F06D14FF021
:100B5000010C0CFA00FCC2F814C00AE091F803C0C2
:100B6000BCF1480F05D14FF0010C0CFA00FCC2F8A3
:100B700010C0401C0828D1D31460B1F800C0BCF1EB
:100B8000FF0F34DD546800202EE000F1080C4FF018
:100B9000010808FA0CF3B1F800C00CEA03069E4203
:100BA00021D183004FF00F0C0CFA03F7BC4305FA78
:100BB00003FC4CEA040491F803C0BCF1280F05D1F2
:100BC00000F1080C08FA0CF8C2F8148091F803C080
:100BD000BCF1480F07D100F1080C4FF0010808FAEA
:100BE0000CF8C2F81080401C0828CED35460BDE831
:100BF000F0814FF6FF710180022181700421C170E4
:100C000070470246002093680B400BB1012000E0C2
:100C1000002070470146886880B270470246002075
:100C2000D3680B400BB1012000E000207047014663
:100C3000C86880B2704701617047416170470AB16E
:100C4000016100E041617047C16070474FF480323C
:100C50000A438261816182618269826970470246CA
:100C60000020344B18684FF68073184040EA021099
:100C70000843304B186070472F49C8617047F0B582
:100C80000A4600230024002100252A4E7168C0F383
:100C9000034583B200F44016B6F5401F08D121F099
:100CA0007061244E766826F07066224F7E6012E0F6
:100CB00000F48016B6F5801F06D1032606FA05F467
:100CC000A14341F0706106E0460D360103FA06F6D5
:100CD000B14341F0706122B1460D360103FA06F6C8
:100CE0003143144E7160F0BD30B500228B071C0FEC
:100CF0000F2303FA04F20F4B08338C1053F82430FF
:100D000093430C4C08348D1044F8253023468C1046
:100D100053F824308C07240F00FA04F42343054CC5
:100D200008348D1044F8253030BD00000014014017
:100D300000F8FEBF0000014000002042DE480068CD
:100D400040F00100DC49086008464068DB49084083
:100D5000D949486008460068D9490840D649086022
:100D60000846006820F4802008600846406820F4A7
:100D7000FE004860002088607047CF49096821F470
:100D80008031CD4A11601146096821F4802111603B
:100D9000B0F5803F03D0B0F5802F0ED106E0C649F4
:100DA000096841F48031C44A116007E0C24909680A
:100DB00041F4A021C04A116000E000BF00BF7047AD
:100DC00010B501460022002300204A11012A02D159
:100DD000B94C236806E0022A02D1B74C236A01E02D
:100DE000B54C636A01F01F02012494401C400CB111
:100DF000012000E0002010BD38B500200090002444
:100E0000002500BF3120FFF7DBFF05460098401C9E
:100E100000901DB90098B0F5A06FF3D13120FFF715
:100E2000CFFF08B1012400E00024204638BD014670
:100E30000020A14A106820F0F80040EAC1001060CC
:100E40007047A04908607047024600209A4B5868D6
:100E500020F47C1042EA01031843974B5860704716
:100E600098490866704701460020934A506820F070
:100E700003000843506070478F48406800F00C0042
:100E80007047014600208C4A506820F0F00008436B
:100E90005060704701460020874A506820F4E060A7
:100EA00008435060704701460020834A506820F490
:100EB000605040EAC1005060704729B17E4A527AC2
:100EC00002437D4B5A7204E07B4A527A82437A4B4A
:100ED0005A7270477B49D83108607047014600203C
:100EE000754A506820F44040084350607047002124
:100EF000714A20321170704A82F82010012802D005
:100F000004280AD104E001216B4A2032117005E067
:100F10000521694A2032117000E000BF00BF704710
:100F20006949086070476449096A0143624A11626D
:100F30007047654944390860704730B50021002288
:100F4000002400235C4D6D6805F00C0121B10429DB
:100F500005D0082923D105E05C4D056022E05B4DFA
:100F600005601FE0544D6D6805F47012022505EB15
:100F70009242514D6D6805F480341CB9544D55436F
:100F800005600BE04C4D6D6805F400351DB1504D0A
:100F90005543056002E04D4D5543056002E04B4D61
:100FA000056000BF00BF444D6D6805F0F001090900
:100FB000484D6B5C0568DD4045603F4D6D6805F44C
:100FC000E061090A434D6B5C4568DD4085603A4D40
:100FD0006D6805F46051C90A3E4D6B5C4568DD40A3
:100FE000C560354D6D6805F44041890B3A4D6B5C29
:100FF000C568B5FBF3F5056130BD29B12E4A5269CC
:1010000002432D4B5A6104E02B4A526982432A4B1A
:101010005A61704729B1284A92690243264B9A6166
:1010200004E0254A92698243234B9A61704729B1B3
:10103000214AD2690243204BDA6104E01E4AD26998
:1010400082431D4BDA61704729B11B4AD2680243C3
:10105000194BDA6004E0184AD2688243164BDA6012
:10106000704729B1144A12690243134B1A6104E014
:10107000114A12698243104B1A6170471249403974
:10108000086070470F49C86470470B49C8717047C2
:101090000948406A40F0807007494862704701463D
:1010A0000020054A92680A400AB1012000E00020B1
:1010B0007047014988727047001002400000FFF835
:1010C000FFFFF6FE000042428004424200127A0016
:1010D00000093D002C0000203C000020016821F0A8
:1010E000010101600021016041608160C160874AA7
:1010F000811A90425BD012DC854AA0EB020190423B
:101100003AD007DC83490144D9B1142922D02829D7
:101110007AD128E0142938D0282975D13EE0B1F5DC
:101120006C7F5BD006DCB1F5627F49D0B1F5677F9B
:101130006AD14CE0B1F5717F57D0B1F5767F63D1BC
:101140005BE073494439496841F00F01704A443A01
:1011500051605AE06E494439496841F0F0016C4AE7
:10116000443A516051E06A494439496841F4706138
:10117000674A443A516048E065494439496841F456
:101180007041634A443A51603FE0614944394968DB
:1011900041F470215E4A443A516036E05C4944397A
:1011A000496841F470015A4A443A51602DE0584967
:1011B0004439496841F07061554A443A516024E02D
:1011C0005549096841F00F01534A11601DE0524929
:1011D000096841F0F001504A116016E04E49096873
:1011E00041F470614C4A11600FE04B49096841F4C9
:1011F0007041494A116008E006E04749096841F436
:101200007021454A116000E000BF00BF704710B573
:101210000022026847F6F0739A430C6A8B682343F6
:101220000C6923434C6923438C692343CC692343D2
:101230004C6A23438C6A23431A430260CB684360A1
:101240000B6883604B68C36010BD00210160416082
:101250008160C160016141618161C161016241627E
:101260008162704721B1026842F00102026003E02E
:10127000026822F00102026070471AB103680B4352
:10128000036002E003688B430360704701464868CF
:1012900080B2704701460020002201F080531BB14C
:1012A0001D4B1B1F1A6802E0194B443B1A6802EAE7
:1012B00001030BB1012000E00020704700F08051D5
:1012C00011B11549086002E011494439486070477E
:1012D00001460020002201F080531BB10E4B1B1F62
:1012E0001A6802E00A4B443B1A6802EA01030BB198
:1012F000012000E00020704700F0805111B1064944
:10130000086002E0024944394860704780000240AA
:1013100044000240F8FFFDBF0404024010B504463B
:10132000D749601A8C422BD006DCD648204498B1AD
:10133000B0F5806F38D119E0B0F5806F2AD0B0F5E4
:101340006C4F31D101218803FFF77EFE00214FF45D
:101350008040FFF779FE28E001214804FFF781FE75
:1013600000214FF40030FFF77CFE1EE001218804CD
:10137000FFF777FE00214FF48020FFF772FE14E0A4
:101380000121C804FFF76DFE00214FF40020FFF794
:1013900068FE0AE001210805FFF763FE00214FF413
:1013A0008010FFF75EFE00E000BF00BF10BD2DE91A
:1013B000F04786B005460E460024A24600BF00BF97
:1013C00000272F462C8A4CF6FF700440F088044317
:1013D0002C82AC894EF6F3100440B0883189084362
:1013E000718908430443AC81AC8A4FF6FF40044046
:1013F000B0890443AC8201A8FFF79FFDA248874251
:1014000002D1DDF810A001E0DDF80CA00AEBCA0063
:1014100000EB0A1031688900B0FBF1F86420B8FBDA
:10142000F0F004012009642101FB1089322000EB57
:101430000910B0FBF1F000F00F0004432C8106B05E
:10144000BDE8F0874FF41651016000218180C18012
:1014500001810C21418100218181704710B5024634
:101460000020108A4FF2FF0318400B884C8823435A
:101470008C882343CC8823431843108210BD00215D
:10148000018041808180C180704721B1828942F40E
:101490000052828104E082894DF6FF731A408281F6
:1014A0007047F0B5034600240026002500201846AA
:1014B000C1F3421401F01F06012707FA06F5012CBB
:1014C00001D10C3004E0022C01D1103000E01430C6
:1014D0001AB107682F43076002E00768AF4307604F
:1014E000F0BD1AB1838A0B43838202E0838A8B4367
:1014F00083827047028A4FF6F0731A400282028A92
:101500000A430282704782894FF2FF731A40828138
:1015100082890A438281704721B1828942F00202A6
:10152000828104E082894FF6FD731A408281704700
:10153000028A4FF6DF731A400282028A0A4302824D
:10154000704721B1028A42F48042028204E0028A9A
:101550004BF6FF731A4002827047C1F30802828083
:10156000704701468888C0F308007047818941F0C0
:10157000010181817047028BD2B20283028B42EA61
:10158000012202837047028B02F47F420283028BA6
:101590000A430283704721B1828A42F0200282828C
:1015A00004E0828A4FF6DF731A408282704721B1CD
:1015B000828A42F01002828204E0828A4FF6EF7340
:1015C0001A408282704721B1828A42F008028282E8
:1015D00004E0828A4FF6F7731A4082827047828A4B
:1015E0004FF6FB731A408282828A0A4382827047D6
:1015F00021B1828A42F00202828204E0828A4FF69E
:10160000FD731A40828270470246002013880B4007
:101610000BB1012000E000207047CA4302807047F0
:1016200070B502460B460024002100250020C3F3BC
:10163000421503F01F01012606FA01F1012D02D126
:101640009689314006E0022D02D1168A314001E030
:10165000968A31401C12012606FA04F4168834409A
:1016600011B10CB1012000E0002070BD10B50022C6
:1016700000230A1201249440A3B2DC43048010BD6D
:10168000004C004000BCFFBF00380140314901431D
:10169000314A1160704770B5002100230F22C478D1
:1016A00004B32D4C246804F4E064C4F5E064210A1A
:1016B000C1F10403CA40447804FA03F18478144069
:1016C00021430901254C0678A155047804F01F0533
:1016D0000124AC4005786D11AD0005F1E025C5F899
:1016E000004109E0047804F01F050124AC401C4DC2
:1016F0000678761145F8264070BD1A4A0A40024322
:10170000154B1B1F1A60704739B1134A121D12681E
:101710000243114B1B1D1A6006E00F4A121D12688E
:1017200082430D4B1B1D1A607047042808D14FF0EF
:10173000E021096941F004014FF0E022116107E066
:101740004FF0E021096921F004014FF0E02211611E
:10175000704700000000FA050CED00E000E400E036
:1017600080E100E080FFFF1F0CB500200190009099
:101770004748006840F480304549086000BF44484D
:10178000006800F4003000900198401C019000981F
:1017900018B90198B0F5A06FF1D13D48006800F488
:1017A000003010B10120009001E00020009000986E
:1017B000012844D13748006840F0100035490860DE
:1017C0000846006820F0030008600846006840F002
:1017D000020008602E4840682D494860084640686D
:1017E00048600846406840F48060486008464068A9
:1017F00020F47C1048600846406840F4E8104860D7
:101800000846006840F08070086000BF204800680B
:1018100000F000700028F9D01D48406820F0030057
:101820001B4948600846406840F00200486000BF1D
:101830001748406800F00C000828F9D101E000BF0B
:10184000FEE70CBD10B5FFF78FFF10BD10B51048B7
:10185000006840F001000E490860084640680E49E3
:1018600008400B494860084600680C490840084990
:1018700008600846006820F4802008600846406838
:1018800020F4FE00486000208860FFF7DBFF10BDF9
:1018900000100240002002400000FFF8FFFFF6FEAB
:1018A000F0B480EA0102D40F4200B2EB410F02D241
:1018B0000246084611464A0042D0C30DDDB2C1F3CC
:1018C000C752AD1A202D35DAC1F3160141F40002DA
:1018D00004B15242C5F1200602FA06F12A41104431
:1018E000B3EBD05F23D0C4B1012DA0EBC35009DC12
:1018F000F0BC4FF0004202EAC352DBB200F5000038
:1019000000F0D5B8400000F1807000EBC350A0F1AA
:10191000807040EAD170490009E0490841EAC0718D
:10192000A0EBC35000F50000400800EBC350F0BC32
:1019300000F0B4B86142012202EB4101001BF6E75E
:10194000F0BC704781F00041AAE780F00040A7E7B3
:1019500080EA010210B502F00043400022D04A00A4
:101960001FD0010E01EB1261C0F35600C2F3560204
:1019700040F4000042F40002A0FB022000047F3982
:10198000140400D0401C50EA124001D44000491E0B
:10199000C2B20C0604EBD010401C4008802A02D0D2
:1019A00003E0002010BD20F00100002900DA002033
:1019B000184310BD30B480EA010202F0004530F057
:1019C000004221F0004013D090B1C30DD40DC2F3FA
:1019D0001601C0F31600E41A41F4000140F40002BD
:1019E0007D34914201D3641C00E04900002C02DAEE
:1019F00030BC002070474FF400000023914201D317
:101A0000891A034340084FEA4101F7D151B191428D
:101A100002D14FF0004105E002D24FF0010101E098
:101A20006FF0010103EBC450284430BC00F036B81D
:101A3000C10F80EAE0700844CA079623002100F035
:101A400036B896230022114600F031B820F000404D
:101A5000C10DC0F3160040F400007F2901DA002018
:101A60007047962903DCC1F19601C840704796394A
:101A700088407047002801DBC0F10040002901DBED
:101A8000C1F1004181427047002801DBC0F10040F4
:101A9000002901DBC1F10041884270470029A8BF3D
:101AA0007047401C490008BF20F00100704710B487
:101AB000B0FA80FC00FA0CF050EA010404BF10BC3C
:101AC000704749B1CCF1200421FA04F411FA0CF169
:101AD00018BF012121430843A3EB0C01CB1D4FEAA2
:101AE00000614FEA102042BF002010BC704700EB9D
:101AF000C35010440029A4BF10BC7047401C4900CB
:101B000008BF20F0010010BC70470000064C074DD4
:101B100006E0E06840F0010394E8070098471034BD
:101B2000AC42F6D3FEF708FB501B0008701B000800
:101B300002E008C8121F08C1002AFAD17047704796
:101B4000002001E001C1121F002AFBD170470000F4
:101B5000701B00080000002040000000301B00083F
:101B6000B01B000840000020F0020000401B0008ED
:101B70000000A041000020420000B04100002042CF
:101B800000000842000008420000000000000000C1
:101B90000000BC02C20100000000000000000000C4
:101BA00001020304010203040607080902040608EF
:0400000508000147A7
:00000001FF
